:020000040800F2
:10000000D809002005010008390E0008FD0C000881
:10001000D90D0008B50700080F1E000800000000F9
:10002000000000000000000000000000A917000808
:10003000A10A00080000000093160008A519000896
:100040001F0100081F0100081F0100081F01000810
:100050001F0100081F0100081F0100081F01000800
:100060001F0100081F0100081F0100081F010008F0
:100070001F0100081F0100081F0100081F010008E0
:100080001F0100081F0100081F0100081F010008D0
:100090001F0100081F0100081F0100081F010008C0
:1000A0001F0100081F0100081F0100081F010008B0
:1000B0001F010008891A00081F0100081F0100081D
:1000C0001F0100081F0100081F0100081F01000890
:1000D0001F010008B51B00081F0100081F010008D0
:1000E0001F0100081F0100081F010008DFF810D0E1
:1000F00000F0FAFA0048004705270008AFF3008037
:10010000D80900200648804706480047FEE7FEE77A
:10011000FEE7FEE7FEE7FEE7FEE7FEE7FEE7FEE7B7
:10012000A9190008ED000008D2B201E000F8012B87
:10013000491EFBD270470022F6E710B513460A4667
:1001400004461946FFF7F0FF204610BD30B50546BE
:100150002A460B4612F8010B13F8014B08B1A042D6
:10016000F8D01CB1002802D06D1CF1E7284630BD44
:100170002DE9FE4F81EA030404F0004421F0004120
:1001800000944FF0000B23F0004350EA01045ED0CE
:1001900052EA03045BD0C3F30A54C1F30A552C445A
:1001A000A4F2F3340194A0FB0254C1F3130141F40F
:1001B0008011C3F3130343F4801301FB024400FBDB
:1001C000034E840A970A44EA815447EA8357A4FB02
:1001D000076802958D0A05FB07854FEA932C04FBFF
:1001E0000C542705029D4FEA065847EA1637B5EB2F
:1001F00008056EEB070C870E920E47EA811742EA5C
:100200008312A7FB0201B6EB0B0164EB00042B0D7C
:1002100043EA0C335E1844EB1C50DA465146E7FBC8
:100220000201C5F313044FEA0B3343EA14534FEAB8
:100230000432019C43EA0603A4F10C040294009CDE
:10024000CDE900B400F0BBF803B0BDE8F08F0020AA
:100250000146F9E796230022114600F073B800F03A
:10026000004230F000400AD0C10D01F56071C0F3CA
:10027000160042EA0151C2084007114370470020AE
:100280000146704730B50B4601460020202201246C
:1002900009E021FA02F59D4205D303FA02F5491B54
:1002A00004FA02F52844151EA2F10102F1DC30BD6A
:1002B0002DE9F05F0546002092469B46884606469B
:1002C000814640241BE0284641464746224600F02E
:1002D00020F853465A46C01A914110D31146184689
:1002E000224600F013FA2D1A67EB01084F4622460A
:1002F0000120002100F00AFA17EB00094E41201EF0
:10030000A4F10104DFDC484631462A464346BDE8F5
:10031000F09F202A04DB203A21FA02F000217047E6
:1003200021FA02F3D040C2F120029140084319465D
:1003300070470029A8BF7047401C490008BF20F043
:100340000100704710B4B0FA80FC00FA0CF050EADB
:10035000010404BF10BC704749B1CCF1200421FA5C
:1003600004F411FA0CF118BF012121430843A3EB57
:100370000C01CB1D4FEA00614FEA102042BF002064
:1003800010BC704700EBC35010440029A4BF10BC40
:100390007047401C490008BF20F0010010BC7047A6
:1003A00010B5141E73F1000408DA401C41F100017D
:1003B00092185B411A4301D120F0010010BD2DE9D4
:1003C000F04D92469B4611B1B1FA81F202E0B0FACB
:1003D00080F22032904600F099F904460F4640EA38
:1003E0000A0041EA0B0153465A46084313D011460E
:1003F00053EA010019D0C8F140025046FFF789FFC7
:1004000005460E4650465946424600F07FF90843DD
:1004100005D0012004E020463946BDE8F08D0020DB
:10042000054346EAE0762C4337430A986305E40A1D
:10043000A0EB08000022FD0A44EA47540A3002D526
:1004400000200146E9E7010510196941DDE9084589
:1004500000196941BDE8F04DA2E72DE9FE4F804645
:1004600081EA0300C00F0C46009021F0004123F008
:100470000045B8EB0200A94105D24046214690460E
:100480001C460B46024623F00040104347D0270D80
:10049000C7F30A00C3F30A510290401A01904028A2
:1004A0006BDAC3F3130040F4801B0098924620B12E
:1004B0000023D2EB030A63EB0B0B01985946C0F102
:1004C0004002504600F022F906460D465046594675
:1004D000019A00F02AF910EB08006141002487EA34
:1004E000115284EAE7731A4340D0009A62B3019A2A
:1004F000012A4FEA075215DC001B61EB02014FF0A5
:10050000004202EA0752CDE90042001C41F5801189
:1005100032462B46FFF753FF03B0BDE8F08F40464D
:100520002146F9E7001B61EB0201001C41F5801335
:1005300000185B412018A2F5001747EB030140EAC1
:10054000D570B6196D4111E06D084FEA360645EADF
:10055000C0754FEA0752001B61EB0201001C41F518
:10056000801149084FEA30000019514132462B46AC
:1005700003B0BDE8F04FFFF713BF00980122400021
:100580000023D0EB020263EBE073009821464FEAB0
:10059000E074B8EB000061EB0401E9E783F000438D
:1005A0005BE781F0004158E72DE9F04D81EA030453
:1005B00004F0004B21F0004514464FF0000A23F0F0
:1005C000004150EA050220D054EA01021DD0C5F3D3
:1005D0000A570246C5F31303C1F31300C1F30A56C9
:1005E00040F4801543F48013A7EB0608101BD64691
:1005F00008F2FD3873EB050002D308F1010801E0B1
:1006000092185B41B8F1000F03DA00200146BDE803
:10061000F08D00204FF48011064684460EE0171B33
:1006200073EB050705D3121B63EB050306434CEA86
:10063000010C49084FEA300092185B4150EA01076B
:10064000EDD152EA030012D082EA040083EA0501E8
:10065000084305D0101BAB4106D20122002306E05F
:1006600000224FF0004302E06FF0010253101AEB3A
:1006700006004CEB085110EB0A0041EB0B01BDE802
:10068000F04DFFF78DBEC1F30A52C1F3130140F2E2
:10069000FF3341F480119A4202DA0020014670478C
:1006A00040F233439A42A2F2334202DC5242FFF755
:1006B00030BE00F02BB8000030B5041E71F100040C
:1006C00004DB4FF00044404264EB0101141E73F15F
:1006D000000405DB1C464FF00043524263EB040369
:1006E000994208BF904230BD064C074D06E0E068D5
:1006F00040F0010394E8070098471034AC42F6D369
:10070000FFF7F8FC744B0008944B0008202A04DB28
:10071000203A00FA02F1002070479140C2F1200314
:1007200020FA03F3194390407047202A06DBCB17C9
:10073000203A41FA02F043EAE07306E041FA02F39C
:10074000D040C2F12002914008431946704710B5CD
:1007500000F00EF8322000F0A4F900F001F810BD0E
:1007600010B52021014800F0C7FA10BD0008014073
:1007700010B52021014800F0BDFA10BD000801406D
:1007800008B50121042000F095FF10208DF803002A
:100790002020ADF8000003208DF8020069460448CF
:1007A00000F014FA2021024800F0A6FA08BD00006B
:1007B0000008014000BFFEE710B50121042000F051
:1007C00079FF10BD70B5002400253FE0002000F047
:1007D00087F807E01F480078401C1E490870012078
:1007E00000F06BF94FF480511B4800F07AFA18B909
:1007F000184800786428EDDB002016490870600670
:10080000040E282000F059F94FF48051124800F0EE
:1008100068FA012818D144F0010407E00D48007877
:10082000401C0C490870012000F047F94FF480513A
:10083000094800F056FA012803D1064800786428D8
:10084000ECDB002003490870681CC5B2082DBDDB35
:10085000204670BD50000020000801402DE9FC41F9
:1008600005460E461746984600200090019000F07D
:100870008BF800F053F8002405E0FFF7A3FF0DF814
:100880000400601CC4B2052CF7DB012000F009F95C
:100890009DF800009DF8011008449DF802100844DE
:1008A0009DF8031008449DF8041088420DD19DF86E
:1008B000000028709DF8010038709DF8020030702B
:1008C0009DF8030088F8000008E0002004E0002103
:1008D0000DF80010411CC8B20528F8DBBDE8FC810A
:1008E00038B504464CB110208DF803000002ADF875
:1008F000000003208DF8020009E048208DF8030075
:100900004FF48050ADF8000003208DF802006946D6
:10091000014800F05BF938BD0008014010B5002027
:10092000FFF7DEFF07E016480078401C1449087006
:10093000012000F0C2F84FF48051124800F0D1F9C4
:1009400018B90F4800786428EDDB00200C490870C6
:1009500007E00B480078401C09490870012000F0AE
:10096000ACF84FF48051074800F0BBF9012803D1DF
:10097000034800786428ECDB00200149087010BDB2
:10098000500000200008014010B50120FFF7A8FF2B
:100990004FF48051074800F0ADF9122000F081F8C3
:1009A0004FF48051034800F0A7F9282000F085F8A3
:1009B00010BD00000008014010B52948007801284A
:1009C0004AD128480078FFF745FC0446224626A174
:1009D000002000F0DDF8322000F063F824480078B1
:1009E000FFF738FC0446224622A1002000F0D0F890
:1009F000322000F056F821490878FFF72BFC044616
:100A000022461FA1002000F0C3F8322000F049F870
:100A10001A498878FFF71EFC044622461AA10020D6
:100A200000F0B6F8322000F03CF814490879FFF7DE
:100A300011FC0446224616A1002000F0A9F832203D
:100A400000F02FF80D498879FFF704FC0446224690
:100A500011A1002000F09CF800200149087010BD91
:100A6000390000205100002068756D690000000009
:100A70005200002074656D7000000000140000201A
:100A80004170706C6500000042616E616E61000033
:100A90004F72616E676500004D616E676F00000008
:100AA000704700B5034603E04FF47A7000F005F894
:100AB000181EA3F10103F7D100BD00EBC001C9006E
:100AC0004FF0E0225161002191610521116100BFC9
:100AD0004FF0E021096901F480310029F8D00421A8
:100AE0004FF0E0221161704710B500F089FE09E077
:100AF00016A11948FFF72AFB20B1FA211648FFF783
:100B00001AFB00E0F4E700BF4FF4FA60FFF7C9FFFB
:100B1000FA211148FFF70FFB10A001F07BF94FF409
:100B2000FA60FFF7BEFFFA210B48FFF704FB0F48FE
:100B300003680F4802680F4801680FA001F06AF9C6
:100B40004FF4FA60FFF7ADFF10BD0000574946496A
:100B500020474F5420495000DC04002041542B49C9
:100B60004F545354415455530D0A00004C0000207B
:100B7000400000204800002041542B494F54434678
:100B8000473D25732C25732C25730D0A00000000AA
:100B90002DE9FC4104460D4690464046FFF75FFBB9
:100BA0002A46CDE90001214602A001F033F9BDE853
:100BB000FC81000041542B494F5453454E443D2580
:100BC000642C25732C252E31660D0A002DE9F04189
:100BD000024600250026002000230024002791F86B
:100BE00003C00CF00F0591F803C00CF0100CBCF121
:100BF000000F03D091F802C04CEA050591F800C03F
:100C0000BCF1000F31D0146800202BE04FF0010C34
:100C10000CFA00F3B1F800C00CEA03069E4220D1A2
:100C200083004FF00F0C0CFA03F7BC4305FA03FCEA
:100C30004CEA040491F803C0BCF1280F06D14FF030
:100C4000010C0CFA00FCC2F814C00AE091F803C0D1
:100C5000BCF1480F05D14FF0010C0CFA00FCC2F8B2
:100C600010C0401C0828D1D31460B1F800C0BCF1FA
:100C7000FF0F34DD546800202EE000F1080C4FF027
:100C8000010808FA0CF3B1F800C00CEA03069E4212
:100C900021D183004FF00F0C0CFA03F7BC4305FA87
:100CA00003FC4CEA040491F803C0BCF1280F05D101
:100CB00000F1080C08FA0CF8C2F8148091F803C08F
:100CC000BCF1480F07D100F1080C4FF0010808FAF9
:100CD0000CF8C2F81080401C0828CED35460BDE840
:100CE000F0810246002093680B400BB1012000E028
:100CF00000207047416170470161704700BFFEE707
:100D000010B54FF400710C48FFF7F6FF4FF48071F7
:100D10000948FFF7F1FF00F041F84FF40071064871
:100D2000FFF7E8FF00F03AF84FF480710248FFF750
:100D3000E1FF00F033F810BD000C014010B54FF496
:100D400000710848FFF7D6FF4FF480710548FFF7A0
:100D5000D3FF00F023F84FF400710248FFF7CCFFF7
:100D600010BD0000000C014010B54FF400710A489E
:100D7000FFF7C2FF00F012F84FF480710648FFF74A
:100D8000BBFF00F00BF84FF480710348FFF7B2FF90
:100D900000F004F810BD0000000C0140032000BF6B
:100DA000011EA0F10102D0B2FAD1704708B50121AD
:100DB000082000F07FFC48208DF8030043F6034034
:100DC000ADF8000003208DF8020069460148FFF7E6
:100DD000FDFE08BD000C014000BFFEE708B5012183
:100DE000082000F067FC10208DF80300C020ADF84B
:100DF000000003208DF8020069460648FFF7E6FE72
:100E000080210448FFF776FF40210248FFF772FF78
:100E100008BD0000000C014010B540210548FFF757
:100E20006BFF40F6C410FFF73CFE40210148FFF77E
:100E300061FF10BD000C01407047000070B500213B
:100E400000230F22C47804B3154C246804F4E06432
:100E5000C4F5E064210AC1F10403CA40447804FAED
:100E600003F184781440214309010E4C0678A15502
:100E7000047804F01F050124AC4005786D11AD0025
:100E800005F1E025C5F8004109E0047804F01F05EC
:100E90000124AC40044D0678761145F8264070BD1B
:100EA0000CED00E000E400E080E100E002490143D5
:100EB000024A1160704700000000FA050CED00E0E6
:100EC00070B500240CE0002506E00020074901EB86
:100ED000C5010855681CC5B2802DF6DB601CC4B284
:100EE000082CF0DB00F04CF970BD00005C00002025
:100EF000F0B514460B46CF1701EB5777C7F3C7027F
:100F0000CF1701EB5777FF10A1EBC707FEB2012304
:100F1000B340DDB24CB1134B03EBC0039B5C2B43DE
:100F2000104F07EBC007BB541AE00E4B03EBC00396
:100F30009B5CDB430B4F07EBC007BB54094B03EB38
:100F4000C0039B5C2B43074F07EBC007BB54054B0B
:100F500003EBC0039B5CDB43024F07EBC007BB54B2
:100F6000F0BD00005C00002008B50121082000F061
:100F7000A1FB4FF44070ADF8000014208DF8030081
:100F800003208DF8020069464448FFF71FFE4FF426
:100F900040714248FFF7B0FE4FF40070ADF800001A
:100FA00010208DF8030003208DF8020069463B48AD
:100FB000FFF70CFE4FF400713848FFF79DFEC82084
:100FC000FFF76FFD0021AE2000F047FB002108462F
:100FD00000F043FB0021102000F03FFB00214020E7
:100FE00000F03BFB0021812000F037FB0021CF20E7
:100FF00000F033FB0021A12000F02FFB0021C820CE
:1010000000F02BFB0021A62000F027FB0021A820E8
:1010100000F023FB00213F2000F01FFB0021D32024
:1010200000F01BFB0021084600F017FB0021D52033
:1010300000F013FB0021802000F00FFB0021D920DD
:1010400000F00BFB0021F12000F007FB0021DA206B
:1010500000F003FB0021122000F0FFFA0021DB204A
:1010600000F0FBFA0021302000F0F7FA00212020E8
:1010700000F0F3FA0021022000F0EFFA00218D20A9
:1010800000F0EBFA0021142000F0E7FAFFF718FF58
:101090000021AF2000F0E1FA08BD0000000C014083
:1010A0002DE9FC4706460F464FF0000813E04FF0CD
:1010B000000909E00020294901EBC90101F80800F5
:1010C00009F1010000F0FF09B9F1800FF2DB08F12E
:1010D000010000F0FF08B8F1080FE8DB35460024F6
:1010E00036E0EAB2E1B210230020009700F07CF86D
:1010F000681CC2B2E1B210231846009700F074F8E1
:1011000001201021CDE900101548425DE1B2012314
:10111000302000F037FA0120E1B210231B220090AA
:10112000382000F0ADF901201021CDE900100D4864
:10113000425DE1B20223582000F024FA0120E1B21E
:1011400010231C220090682000F09AF9AD1C103486
:1011500006F10800A842C4DCBDE8FC875C00002062
:10116000240000201400002010B50246012000E0F9
:1011700050430B1EA1F10104E1B2F9D110BD0000F2
:1011800070B500242BE004F1B001C8B2002100F0DA
:1011900064FA0021084600F060FA0021102000F0F7
:1011A0005CFAFFF7ADFD782000F000FBFFF7DCFDF7
:1011B000402000F0FBFAFFF7D7FD002509E00949C0
:1011C00001EBC501085D00F0F1FAFFF7CDFD681CE9
:1011D000C5B2802DF3DBFFF7B1FD601CC4B2082C53
:1011E000D1DB70BD5C0000202DE9FE4F074688462C
:1011F00015461C46DDF830B00297CDF80480204635
:10120000E21704EB5272D2102146E31704EB53733A
:10121000DB10A4EBC3030BB1012300E000231A444D
:10122000624392B2009200267DE0102C05D1414825
:1012300000EB451010F806A01BE0182C07D105EBB9
:10124000C5003D4901EBC00010F806A011E0202CBC
:1012500005D13A4800EBC51010F806A009E0402C73
:1012600005D1374800EB452010F806A001E0BDE8A5
:10127000FE8FAB4501D1012000E000200BF1010100
:10128000A94201D1012100E000210843F0B14FF053
:10129000000917E00AF0010028B100224146384653
:1012A000FFF726FE04E0012241463846FFF720FE04
:1012B0004FEA6A0A08F1010000F0FF0809F1010095
:1012C00000F0FF09B9F1080FE4DB1DE04FF0000961
:1012D00017E00AF0010028B1012241463846FFF725
:1012E00007FE04E0002241463846FFF701FE4FEAC0
:1012F0006A0A08F1010000F0FF0809F1010000F09E
:10130000FF09B9F1080FE4DB781CC7B20298381A5C
:10131000A04204D1029F01980830C0B20190DDF8CC
:101320000480701C86B200988642FFF67EAF00BF34
:101330009DE700000C4600082C4A00084C4B0008B2
:101340004D4B00082DE9FE4F0746884692461C4645
:101350000197CDF80080082C02D14FF006091FE05C
:101360002046E31704EB5373DB1021464FEAE47C7D
:1013700004EB5C7C4FEAEC0CA4EBCC0CBCF1000F52
:1013800002D04FF0010C01E04FF0000C6344224604
:1013900004EBD27C4FEA6C0C03FB0CF303F0FF0967
:1013A000AAF12000C6B200255EE0082C07D106EBAA
:1013B00046002F4901EB400010F805B01DE00C2C51
:1013C00007D106EB46002B4901EB800010F805B071
:1013D00013E0102C05D1284800EB061010F805B0DA
:1013E0000BE0182C07D106EBC600244901EB800066
:1013F00010F805B001E0BDE8FE8F002002901CE06F
:101400000BF0010028B1414638460C9AFFF770FDF9
:1014100009E00C9808B9012000E00020024641468E
:101420003846FFF765FD4FEA6B0B08F1010000F04D
:10143000FF080298401CC0B2029002980828DFDB27
:10144000781CC7B2082C0BD004EBD4714A10019958
:10145000791A8A4204D1019F00980830C0B20090E6
:10146000DDF80080681CC5B24D459EDB00BFC2E7B9
:10147000242C00084C2E0008C0320008B0380008A8
:101480002DE9FC4F0746884616461C46BB46CDF85C
:1014900004802046E21704EB5272D2102146E31773
:1014A00004EB5373DB10A4EBC3030BB1012300E087
:1014B00000231A44624392B20092002555E0102C9A
:1014C00005D12C4800EB461010F805A01BE0182CA5
:1014D00007D106EBC600284901EBC00010F805A0B3
:1014E00011E0202C05D1254800EBC61010F805A00E
:1014F00009E0402C05D1224800EB462010F805A059
:1015000001E0BDE8FC8F4FF000091CE00AF001008B
:1015100028B1414638460B9AFFF7EAFC09E00B98E0
:1015200008B9012000E00020024641463846FFF796
:10153000DFFC4FEA6A0A08F1010000F0FF0809F138
:10154000010000F0FF09B9F1080FDFDB781CC7B21A
:10155000A7EB0B00A04204D15F4601980830C0B24F
:101560000190DDF80480681C85B200988542A6DBF6
:1015700000BFC6E70C4600082C4A00084C4B000888
:101580004D4B00082DE9FF4F82B0064691461F469D
:10159000DDE90F4A4FF0000B082C01D14FF0020B90
:1015A000002530E0781B401EC1B20A20FFF7DCFDA9
:1015B000B9FBF0F00A21B0FBF1F201FB1208B8F11F
:1015C000000F0ED104EBD4710BEB610101FB05613F
:1015D000C8B223463022CDE900A40399FFF7B2FE3A
:1015E0000FE004EBD4710BEB610101FB0561C8B2A4
:1015F00008F13001CAB22346CDE900A40399FFF7F0
:10160000A1FE681CC5B2BD42CCDB06B0BDE8F08FC0
:101610002DE9F84106460F4614461D46DDF81C80AC
:1016200013E0CDF8008022782B4639463046FFF78C
:1016300089FE082D02D1B01DC6B205E0284605EB93
:10164000D07106EB6101CEB2641C2078202802DB49
:1016500020787E28E5DDBDE8F88170B505460C46AA
:10166000FFF74EFB782000F0A1F8FFF77DFB1CB1DF
:10167000402000F09BF802E0002000F097F8FFF710
:1016800073FB284600F092F8FFF76EFBFFF756FB5E
:1016900070BD704729B1064AD2690243044BDA6132
:1016A00004E0034AD2698243014BDA6170470000CB
:1016B0000010024029B1064A92690243044B9A6124
:1016C00004E0034A92698243014B9A61704700002B
:1016D0000010024030B500210022002400232D4DCF
:1016E0006D6805F00C0121B1042905D0082923D12A
:1016F00005E0294D056022E0274D05601FE0254DDE
:101700006D6805F47012234D6D6805F48034022570
:1017100005EB92421CB9214D554305600BE01D4D70
:101720006D6805F400351DB11C4D5543056002E0A0
:10173000194D5543056002E0174D056000BF00BF1D
:10174000144D6D6805F0F0010909154D6B5C0568D5
:10175000DD4045600F4D6D6805F4E061090A104DEC
:101760006B5C4568DD4085600A4D6D6805F460512D
:10177000C90A0B4D6B5C4568DD40C560054D6D6861
:1017800005F44041890B074D6B5CC568B5FBF3F56B
:10179000056130BD0010024000127A0000093D00D2
:1017A00000000020100000207047000070B50446C3
:1017B00000251FE004F0800028B14FF400710F48AD
:1017C000FFF79AFA04E04FF400710C48FFF792FA21
:1017D000FFF7E4FA4FF480710848FFF78DFAFFF73E
:1017E000DDFA4FF480710548FFF784FA6006040EB5
:1017F000681CC5B2082DDDDB70BD0000000C014087
:1018000000B587B001218803FFF754FF01210420B0
:10181000FFF750FF18208DF81B004FF40070ADF853
:10182000180003208DF81A0006A92248FFF7CEF908
:1018300048208DF81B004FF48060ADF8180003209D
:101840008DF81A0006A91B48FFF7C0F94FF4E130E4
:1018500002900020ADF814000C20ADF8120000201A
:10186000ADF81000ADF80E00ADF80C0002A912485A
:1018700000F058FA012240F225510F4800F02CFAEE
:101880004FF4A060FFF712FB25208DF80400012023
:101890008DF8070002208DF8050001208DF8060064
:1018A00001A8FFF7CBFA0121034800F0D2F907B0F5
:1018B00000BD0000000801400038014010B500F0F4
:1018C00001F810BD0CB5002001900090334800686D
:1018D00040F480303149086000BF3048006800F4AF
:1018E000003000900198401C0190009818B90198B0
:1018F000B0F5A06FF1D12948006800F4003010B1B4
:101900000120009001E0002000900098012843D1C0
:101910002348006840F0100021490860084600682C
:1019200020F0030008600846006840F002000860EC
:101930001A484068194948600846406848600846A7
:10194000406840F4806048600846406820F47C109D
:1019500048600846406840F4E8104860084600685F
:1019600040F08070086000BF0C48006800F0007014
:101970000028F9D00948406820F003000749486072
:101980000846406840F00200486000BF03484068D5
:1019900000F00C000828F9D10CBD00000010024036
:1019A000002002407047000010B51348006840F066
:1019B00001001149086008464068104908400E4976
:1019C0004860084600680E4908400B490860084610
:1019D000006820F4802008600846406820F4FE007B
:1019E00048604FF41F008860FFF768FF4FF0006009
:1019F0000449086010BD0000001002400000FFF81C
:101A0000FFFFF6FE08ED00E01FB501210220FFF701
:101A100041FE1C4800F076F80020ADF80A00ADF851
:101A200006004CF24F30ADF8080041F61F40ADF80B
:101A3000040000208DF80C0001A9124800F068F89D
:101A4000012211460F4800F054F801210D4800F022
:101A50002DF84FF4A060FFF729FA1D208DF8000043
:101A600001208DF8030002208DF8010001208DF87F
:101A700002006846FFF7E2F90121024800F01CF875
:101A80001FBD00000004004010B50121054800F012
:101A90001FF8012801D1044908700121014800F014
:101AA00008F810BD0004004039000020CA4302823B
:101AB0007047CA430282704721B1028842F0010296
:101AC000028004E002884FF6FE731A4002807047DD
:101AD00030B50246002000230024158A05EA0103E0
:101AE000958905EA010413B10CB1012000E0002042
:101AF00030BD1AB183890B43838102E083898B4314
:101B00008381704701894FF6F87211400181704757
:101B1000002202881D4B98420ED01D4B98420BD0DC
:101B2000B0F1804F08D01B4B984205D01A4B984219
:101B300002D01A4B984204D14FF68F731A404B884B
:101B40001A43174B984207D0164B984204D04FF6D1
:101B5000FF431A40CB881A4302808B8883850B8809
:101B600003850A4B98420BD0094B984208D00E4B84
:101B7000984205D00D4B984202D00D4B984201D1AE
:101B80000B7A03860123838270470000002C0140FA
:101B9000003401400004004000080040000C0040F8
:101BA000001000400014004000400140004401408B
:101BB0000048014010B540F225511B4800F062F882
:101BC00001282FD1184800F019F9C1B2174802684E
:101BD0000068401C154B1860154881541846006871
:101BE000801E1349085C0D2801D1012000E000206F
:101BF0000E490968491E0E4A515C0A2901D101218A
:101C000000E00021084340B1002108480068801E20
:101C1000074A115400200549086040F22551024846
:101C200000F008F810BD0000003801403C00002022
:101C3000DC04002010B50022002340F66A14A14203
:101C400000D100BF0A1201249440A3B2DC430480F7
:101C500010BD21B1828942F40052828104E0828960
:101C60004DF6FF731A408281704702460020B1F59D
:101C7000007F00D100BF13880B400BB1012000E0B2
:101C80000020704770B50246002400230025002084
:101C900040F66A16B14200D100BFC1F3421501F00F
:101CA0001F03012606FA03F3012D02D19689334062
:101CB00006E0022D02D1168A334001E0968A3340B5
:101CC0000C12012606FA04F41688344013B10CB144
:101CD000012000E0002070BDF0B50346002400267E
:101CE0000025002040F66A17B94200D100BF18460F
:101CF000C1F3421401F01F06012707FA06F5012C73
:101D000001D10C3004E0022C01D1103000E014307D
:101D10001AB107682F43076002E00768AF43076006
:101D2000F0BD00002DE9F04786B005460E460024C0
:101D3000A24600BFA1460027B08900B100BF2F46D0
:101D40002C8A4CF6FF700440F08804432C82AC8946
:101D50004EF6F3100440B088318908437189084376
:101D60000443AC81AC8A4FF6FF400440B089044381
:101D7000AC8201A8FFF7AEFC1F48874202D1DDF814
:101D800010A001E0DDF80CA0A88900F4004040B1EB
:101D90000AEBCA0000EB0A1031684900B0FBF1F809
:101DA00007E00AEBCA0000EB0A1031688900B0FBBB
:101DB000F1F86420B8FBF0F004012009642101FB74
:101DC0001089A88900F4004040B1322000EBC9001E
:101DD000B0FBF1F000F00700044308E0322000EB14
:101DE00009106421B0FBF1F000F00F0004432C81D6
:101DF00006B0BDE8F0870000003801400146888841
:101E0000C0F308007047C1F308028280704700BF2A
:101E1000FEE700000FB4054B10B503A9044A029871
:101E200000F0DAF810BC5DF814FB0000E1260008B1
:101E30005800002002E008C8121F08C1002AFAD189
:101E400070477047002001E001C1121F002AFBD13A
:101E5000704700002DE9FF5F82B00021DDE904300A
:101E6000020DDDF840B0034318D044F61050A2F242
:101E7000FF3242431514119801281FD0A5EB0B0027
:101E8000401C5FEA000A4FF000064E4FDFF8389121
:101E9000B046504615D5CAF1000413E0119801244C
:101EA0004AA3012801D16FEA0B010298119AC0E9F7
:101EB0000031C0E9024206B0BDE8F09FCBF100005E
:101EC000DFE704460021404A491842EB0450CDE9BF
:101ED000001012E0E00707D032463B464046494634
:101EE000FEF746F98046894632463B46104619467B
:101EF000FEF73EF906460F466410002CEAD1DDE9F4
:101F00000401DDE90023BAF1000F06DAFEF730F92B
:101F100042464B46FEF72CF905E0FEF745FB4246EC
:101F20004B46FEF741FB04460E460022284BFEF7C7
:101F3000C3FB03D84FF0FF30014607E00022254BDA
:101F400020463146FEF789FAFEF79DFB102409E092
:101F5000002C0ADB0A220023FEF7AAF9039B303289
:101F60001A55641E50EA0102F2D1641C039AC4F1AE
:101F700011031444119A012A03D0012208430DD100
:101F80000AE0084304D000204FF0110B119072E7D3
:101F9000A3EB0B056D1E0DE05B4504DD4FF0000269
:101FA00005F1010504E003DA4FF00002A5F1010597
:101FB000002AECD002981199C0E90231C0E900452D
:101FC00079E70000000014400000F03F30000000FE
:101FD0000000F0430000E03F2DE9FF4F95B09A4626
:101FE000884606460025EEE1252877D100242746BD
:101FF000F94A0121039400E0044316F8013F203B15
:1020000001FA03F01042F7D130782A2811D06FF08E
:102010002F033078A0F13002092A16D8039A44F031
:10202000020402EB820203EB42021044761C03908E
:10203000EFE758F8042B0392002A03DA504244F4E5
:102040000054039044F00204761C30782E2816D1F8
:1020500016F8010F44F004042A280DD06FF02F0267
:102060003078A0F13003092B09D807EB870302EB86
:102070004303C718761CF3E758F8047B761C3078C6
:102080006C280FD006DC4C2817D068280DD06A28A1
:1020900014D104E0742810D07A280FD10DE044F454
:1020A00000140AE044F4801401E044F4401472780F
:1020B000824202D104F58014761C761C30786628A2
:1020C0000BD013DC582877D009DC002875D04528C0
:1020D000F6D04628F4D047281AD193E118E06328B7
:1020E00035D0642879D0652812D18BE1702873D05F
:1020F00008DC6728F1D069286FD06E280DD06F28D2
:1021000006D1ACE073282CD0752874D0782853D031
:102110005246179990476D1C54E1C4F302500228AF
:1021200009D003280DD0D8F8001004280DD00D6078
:1021300008F1040846E1D8F80010EA17C1E9005296
:10214000F6E7D8F800100D80F2E70D70F0E718F808
:10215000041B8DF8001000208DF80100EB460120D3
:1021600003E058F804BB4FF0FF3061074FF0000167
:1021700002D40DE009F101018946B9420FDA814527
:10218000F8DB1BF809100029F4D108E009F101017E
:1021900089468142FADB1BF809100029F6D1039821
:1021A0005346A0EB090721463846179A00F080FAFB
:1021B000284400EB090507E044E008E10DE01BF8C6
:1021C000010B524617999047B9F10109F7D25346CE
:1021D00021463846179AF2E039E00A21C4F3025248
:1021E0004FF0000B0091022A06D058F8040BC117DB
:1021F000032A09D00AE023E008F1070020F00702D3
:10220000F2E80201904605E000B2C117042A01D1AC
:1022100040B2C117002906DA0A460021404261EBAC
:1022200002012D2202E0220504D52B228DF8042084
:10223000012203E0E20701D02022F7E7914657E0B0
:102240000A2100E010214FF0000B00910BE010215B
:102250004FF0000B44F004040827009103E008202D
:102260004FF0000B0090C4F30252022A05D058F838
:10227000040B0021032A08D008E008F1070020F031
:102280000702F2E80201904603E080B2042A00D17E
:10229000C0B24FF0000922072AD53278702A07D041
:1022A000DDF800C08CF0100C5CEA0B0C05D00EE0E1
:1022B00040228DF80420012208E050EA010306D0F4
:1022C00030238DF804308DF8052002229146009BC2
:1022D00083F0080353EA0B030AD150EA010201D14B
:1022E000620705D530228DF804204FF001097F1ECA
:1022F0003278582A04D039A20C920CAA02920BE030
:102300003BA2F9E75B46009AFDF7D2FF0C9B9B5C72
:10231000029A521E0292137050EA0102F2D1029800
:1023200004A9081A00F1200B600702D524F48034B8
:1023300000E001275F4502DDA7EB0B0000E0002075
:1023400000EB0B01009003984944401A0390E0030E
:1023500006D453462146179A039800F0A9F905447C
:10236000002706E001A85246C05D179990476D1CF2
:102370007F1C4F45F6DBE0030CD553462146179AE8
:10238000039800F095F9054404E03020524617996F
:1023900090476D1C0099481E00900029F5DC08E06C
:1023A0000298029952460078491C02911799904769
:1023B0006D1CBBF10001ABF1010BF1DC5BE100F046
:1023C00065F90544761C307800287FF40DAE19B00D
:1023D0002846BDE8F08F0000092801003031323373
:1023E0003435363738396162636465660000000051
:1023F000303132333435363738394142434445463B
:1024000000000000600700D4062708F1070020F054
:102410000700F0E80223804603F0004C5FEA0C005E
:1024200001D097A009E0200501D596A005E0E007BE
:1024300001D095A001E0AFF24C001390307823F06A
:10244000004365280CD006DC452809D046281DD05D
:1024500047287FD13BE0662818D067287AD136E03C
:102460000021112F01DB112000E0781CCDE90001D3
:1024700004A90CA8FFF7EEFCDDE90D010C9A4FF062
:10248000000B07F10109109200914EE04FF000405F
:102490000097CDE9011004A90CA8FFF7DBFCDDE9EA
:1024A0000D020C9B0F994FF0000B91461093009278
:1024B00011B9791C00EB0109B7EB090003D4C0F195
:1024C000FF3B07F10109A9EB0700019042E0012F52
:1024D00000DA01270021112F01DD112000E038462C
:1024E000CDE9000104A90CA8FFF7B4FCDDE90D015A
:1024F0000C9A00914FF0000BB946109221070FD4AF
:10250000009A4A4503DA914601E0A9F10109B9F1BF
:10251000010F05DD109AA9F10101515C3029F4D0B9
:10252000B84202DA10F1040F03DA0121CDE90110FB
:1025300010E0002803DC8344A9EB000102E0411C09
:10254000494500DD8946A0EB0B00401C01904FF08F
:1025500000400290200705D40198484502DB4FF067
:10256000FF30019000208DF84B0002980DF14B07D1
:10257000B0F1004F25D002200C902B200D90029836
:1025800000280CDA404202902D200D9007E00A212D
:102590000298FDF777FE3031029007F8011D0C9983
:1025A000481E0C900029F2DC02980028EFD1791E19
:1025B0000D980870307800F0200040F0450007F8D2
:1025C000020D11A8C01BC01D02901398007800B125
:1025D000012000EB0901019801EBE0710298014430
:1025E0000398401A401E0390E00306D45346214648
:1025F000179A039800F05CF805441398007818B116
:102600005246179990476D1CE00323D55346214647
:10261000179A039800F04CF805441BE0BBF1000F3B
:1026200007DB0098584504DD1098179910F80B0047
:1026300001E0179930205246904701980BF1010BA9
:10264000401E05F10105019004D12E205246179934
:1026500090476D1CB9F10001A9F10109DEDC05E02C
:1026600017F8010B5246179990476D1C0299481EA6
:1026700002900029F4DC53462146179A03989EE6FF
:102680002D0000002B000000200000002DE9F0418B
:10269000044600251E461746880404D405E0394642
:1026A0002020B0476D1C641EF9D52846BDE8F08196
:1026B0002DE9F041044600251E469046C80301D589
:1026C000302700E02027880404D505E0414638463D
:1026D000B0476D1C641EF9D52846BDE8F0810000A6
:1026E00070B504460D46E1B20548FFF78CFB00BF0C
:1026F00040210348FFF7B9FA0028F9D0204670BD01
:10270000003801401CB5FEF751FBFEF72DFC0120FF
:102710001023FEA2002100900846FEF779FFFEF785
:102720002FFDFEF749F8FEF759FBFEF729F8FEF7F3
:10273000DBF9FFF769F968E2F84800781E2803DC46
:10274000F74800785A2801DDFEF701F84FF4805170
:10275000F448FEF7C6FAD0B91420FEF7A2F900BF7C
:102760004FF48051EF48FEF7BCFA0028F8D014204F
:10277000FEF797F9EC480078012805D1EB4800787E
:10278000801C40B2E94908700120E74908704FF405
:102790000051E448FEF7A5FAD0B91420FEF781F9FC
:1027A00000BF4FF40051DF48FEF79BFA0028F8D035
:1027B0001420FEF776F9DC480078012805D1DB48C3
:1027C0000078801E40B2D94908700120D6490870AF
:1027D0000221D448FEF785FAA8B91420FEF761F962
:1027E00000BF0221CF48FEF77CFA0028F9D0142060
:1027F000FEF757F9CC480078002804DDCA48007875
:10280000401EC94908700121C648FEF76AFA08BB94
:102810001420FEF746F900BF0121C248FEF761FA15
:102820000028F9D01420FEF73CF9BF4800780128B1
:1028300011D1BE4890F9000000280CDBBC48BB4910
:1028400091F90010405C30B10220B74908700020B7
:10285000B849087009E0B4480078022805D1B548A5
:10286000007810B10420B04908704FF40061AD4801
:10287000FEF737FA20BB1420FEF713F900BF4FF420
:102880000061A848FEF72DFA0028F8D01420FEF7C2
:1028900008F9A5480078022803D00020A54908704F
:1028A0000EE0A44890F90000012803DA0020A149B5
:1028B000087005E09F480078401E40B29D490870AE
:1028C0004FF480619748FEF70CFA70BB1420FEF7B6
:1028D000E8F800BF4FF480619248FEF702FA002842
:1028E000F8D01420FEF7DDF88F480078022803D0D6
:1028F00000209049087018E08E4890F900000028E8
:1029000003DA00208B4908700FE08948874991F964
:102910000010405C874991F90010884205DD854828
:102920000078401C40B2834908707F480078002836
:102930007DD100240CE0002506E000207E4901EB5B
:10294000C5010855681CC5B2802DF6DB601CC4B2F9
:10295000082CF0DB794B7A4A70497148FDF77EFF0D
:10296000012010231A46194600901420FEF788FD16
:10297000012010231122194600902420FEF780FD2B
:10298000012010231222194600903420FEF778FD12
:10299000012010231322194600904420FEF770FDF9
:1029A000012010231422194600905420FEF768FDE0
:1029B000012010231522202100901420FEF760FD35
:1029C000012010231622202100902420FEF758FD1C
:1029D000012010231722202100903220FEF750FD05
:1029E000012010210223CDE900104C48027820215B
:1029F0004220FEF7C7FD012010231822302100904D
:102A00001420FEF73DFD01201023192230210090F3
:102A10002420FEF735FD012010231A2230210090DA
:102A20003220FEF72DFD01201021022300E00AE0F4
:102A3000CDE900103A48027830214220FEF7A2FD8D
:102A4000FEF79EFB00BF38480078012826D13748A2
:102A500090F90000072805DA344801780020FEF7D5
:102A60001FFB12E0314890F9000007280ADD2F48CB
:102A700090F900000F2805DA2C4801780820FEF7AD
:102A80000FFB02E0FE2029490870284890F9000059
:102A900010F1020F02DA0E20244908702248007853
:102AA000022871D100240CE0002506E00020224914
:102AB00001EBC5010855681CC5B2802DF6DB601C12
:102AC000C4B2082CF0DB01200090184802781023D3
:102AD00000210846FEF7D4FC01200090134800783E
:102AE000401CC2B2102300211846FEF7C9FC012089
:102AF00010210223CDE900100E4890F9002000219A
:102B00003020FEF73FFD012010231BE0436F6E6E67
:102B10006563742057692D4669000000520000204B
:102B200051000020000C014037000020340000203C
:102B300014000020380000205C0000205400002019
:102B4000530000201C22002100904020FEF798FC3A
:102B500001201021CDE900102C482D4991F90010D9
:102B6000405C2C4991F9001000FB01F20223002186
:102B70005820FEF707FD012010231B2200210090A2
:102B80006820FEF77DFC00BF23480078042838D178
:102B9000FEF796F9012010231D220021009008461F
:102BA000FEF76EFC012010231E2200210090184623
:102BB000FEF766FC012010231F2200210090202038
:102BC000FEF75EFC0120102314A2002100903020AB
:102BD000FEF71EFDFEF7D4FAFEF71EF910480C4969
:102BE00091F90010405C0B490978401A0C49084AD9
:102BF00092F900208854002007490870FE200449FB
:102C00000870FDF7D9FEFEF7BBFA95E52400002019
:102C10003400002038000020370000202E2E2E0027
:102C2000140000200000000000000000002F000041
:102C300000000700070000147F147F1400242A7F7F
:102C40002A120062640813230036495522500000FE
:102C50000503000000001C224100000041221C006E
:102C60000014083E08140008083E0808000000A0F0
:102C700060000008080808080000606000000020EC
:102C800010080402003E5149453E0000427F4000CA
:102C9000004261514946002141454B310018141250
:102CA0007F10002745454539003C4A49493000011D
:102CB0007109050300364949493600064949291E6C
:102CC00000003636000000005636000000081422CE
:102CD00041000014141414140000412214080002CE
:102CE0000151090600324959513E007C1211127CF3
:102CF000007F49494936003E41414122007F414120
:102D0000221C007F49494941007F09090901003E11
:102D10004149497A007F0808087F0000417F41004F
:102D2000002040413F01007F08142241007F4040C5
:102D30004040007F020C027F007F0408107F003EAD
:102D40004141413E007F09090906003E4151215E93
:102D5000007F091929460046494949310001017F90
:102D60000101003F4040403F001F2040201F003F26
:102D70004038403F006314081463000708700807D8
:102D800000615149454300007F41410000552A55EB
:102D90002A55000041417F00000402010204004066
:102DA0004040404000000102040000205454547888
:102DB000007F4844443800384444442000384444A8
:102DC000487F00385454541800087E090102001846
:102DD000A4A4A47C007F080404780000447D400083
:102DE000004080847D00007F102844000000417F67
:102DF0004000007C04180478007C08040478003843
:102E00004444443800FC242424180018242418FCCA
:102E1000007C0804040800485454542000043F4433
:102E20004020003C4040207C001C2040201C003CF6
:102E30004030403C004428102844001CA0A0A07C46
:102E4000004464544C44141414141414000000007E
:102E500000000000000000000000FC000000000076
:102E600002000000000C020C020000000000000044
:102E700090D0BCD0BC900003000300001824FE4496
:102E80008C000302070201001824D8B04C80000314
:102E900000010201C038E438E00001020201020230
:102EA000080600000000000000000000000000F81C
:102EB0000402000000010204000204F80000000403
:102EC000020100009060F860900000000100000026
:102ED0002020FC2020000000010000000000000075
:102EE0000000080600000000202020202000000034
:102EF00000000000000000000000000200000000D0
:102F00000080601C0200040300000000F8040404B8
:102F1000F8000102020201000008FC0000000002AB
:102F20000302000018844424180003020202020075
:102F300008042424D80001020202010040B088FCE9
:102F400080000000000302003C242424C40001028D
:102F500002020100F824242CC00001020202010038
:102F60000C04E41C0400000003000000D824242406
:102F7000D80001020202010038444444F800000372
:102F8000020201000000100000000000020000002A
:102F90000000200000000000060000000020508813
:102FA0000402000000000102909090909000000048
:102FB0000000000000020488502000020100000010
:102FC0001804C4241800000002000000F804E4946F
:102FD000F80001020202020000E09CF080000203FF
:102FE0000000030204FC2424D800020302020100B2
:102FF000F80404040C0001020202010004FC0404B1
:10300000F80002030202010004FC24740C00020315
:103010000202030004FC24740C00020302000000FE
:10302000F0080444CC4000010202010004FC20200E
:10303000FC040203000003020404FC040400020276
:1030400003020200000404FC04040604040300005C
:1030500004FC24D00C0402030200030204FC04005C
:103060000000020302020203FC3CC03CFC0003001F
:103070000300030004FC30C4FC040203020003004C
:10308000F8040404F80001020202010004FC2424F4
:103090001800020302000000F8848404F800010212
:1030A0000207050004FC24649800020302000302E6
:1030B000182424448C000302020201000C04FC04C6
:1030C0000C0000020302000004FC0000FC040001EC
:1030D00002020100047C80E01C04000003000000E8
:1030E0001CE03CE01C00000300030000049C609C0A
:1030F0000400020300030200041CE01C04000002A0
:10310000030200000C84641C04000203020203009A
:103110000000FE020200000007040400000E30C0A0
:103120000000000000010200000202FE0000000496
:10313000040700000004020400000000000000007A
:10314000000000000000080808080808000002004D
:1031500000000000000000000040A0A0C00000012E
:103160000202030204FC2020C0000003020201004E
:1031700000C02020600000010202020000C02024E4
:10318000FC0000010202030200C0A0A0C000000178
:10319000020202000020F8242404000203020200BC
:1031A0000040A0A0602000070A0A0A0404FC2020B6
:1031B000C0000203020003020020E400000000023D
:1031C00003020000000020E40000080808070000D7
:1031D00004FC80E020200203020003020404FC003F
:1031E0000000020203020200E020E020C000030011
:1031F0000300030020E02020C000020302000302BD
:1032000000C02020C00000010202010020E02020B8
:10321000C000080F0A02010000C02020E0000001E9
:10322000020A0F0820E040202000020302000000F4
:103230000060A0A020000002020203000020F8208D
:10324000000000000102020020E00020E000000178
:103250000202030220E02080602000000301000041
:103260006080E08060000003000300002060806058
:10327000200002030003020020E0208060200808F4
:10328000070100000020A0602000000203020200ED
:10329000000020DE0200000000070400000000FF24
:1032A00000000000000F00000002DE20000000040B
:1032B00007000000020102040402000000000000F8
:1032C00000000000000000000000000000000000FE
:1032D000000000F800000000000000333000000093
:1032E00000100C06100C060000000000000000009A
:1032F00040C07840C0784000043F04043F0404000C
:10330000007088FC08300000001820FF211E00001B
:10331000F008F000E018000000211C031E211E0030
:1033200000F00888700000001E21232419272110B6
:1033300010160E0000000000000000000000000059
:10334000000000E018040200000000071820400000
:1033500000020418E00000000040201807000000F0
:10336000404080F0804040000202010F0102020054
:10337000000000F0000000000101011F0101010038
:10338000000000000000000080B07000000000009D
:103390000000000000000000000101010101010126
:1033A00000000000000000000030300000000000BD
:1033B0000000000080601804006018060100000092
:1033C00000E010080810E000000F102020100F008F
:1033D000001010F8000000000020203F2020000016
:1033E000007008080888700000302824222130006E
:1033F00000300888884830000018202020110E0076
:103400000000C02010F8000000070424243F24001E
:1034100000F80888880808000019212020110E00F3
:1034200000E0108888180000000F112020110E0005
:1034300000380808C83808000000003F00000000FD
:103440000070880808887000001C222121221C00BE
:1034500000E010080810E0000000312222110F00E7
:10346000000000C0C000000000000030300000007C
:1034700000000080000000000000806000000000EC
:103480000000804020100800000102040810200005
:103490004040404040404000040404040404040050
:1034A00000081020408000000020100804020100E5
:1034B000007048080808F0000000003036010000E5
:1034C000C030C828E810E0000718272423140B0098
:1034D0000000C038E0000000203C23020227382012
:1034E00008F8888888700000203F202020110E00F6
:1034F000C0300808080838000718202020100800ED
:1035000008F808080810E000203F202020100F00D5
:1035100008F88888E8081000203F202023201800A1
:1035200008F88888E8081000203F20000300000009
:10353000C03008080838000007182020221E0200AA
:1035400008F808000008F808203F210101213F2069
:10355000000808F8080800000020203F2020000094
:1035600000000808F8080800C08080807F00000084
:1035700008F888C028180800203F200126382000BD
:1035800008F8080000000000203F20202020300024
:1035900008F8F800F8F80800203F003F003F20003E
:1035A00008F830C00008F808203F200007183F0046
:1035B000E01008080810E0000F10202020100F0075
:1035C00008F808080808F000203F21010101000068
:1035D000E01008080810E0000F18242438504F00AD
:1035E00008F8888888887000203F2000030C30206D
:1035F00000708808080838000038202121221C00AB
:10360000180808F8080818000000203F20000000F3
:1036100008F808000008F808001F202020201F00DC
:103620000878880000C83808000007380E0100003C
:10363000F80800F80008F800033C0700073C030006
:10364000081868808068180820302C03032C30206C
:103650000838C800C83808000000203F20000000DB
:1036600010080808C8380800203826212020180033
:10367000000000FE020202000000007F4040400007
:10368000000C30C000000000000000010638C0003F
:1036900000020202FE000000004040407F000000E7
:1036A000000004020202040000000000000000000C
:1036B000000000000000000080808080808080800A
:1036C00000020204000000000000000000000000F2
:1036D00000008080808000000019242222223F20E8
:1036E00008F8008080000000003F112020110E002B
:1036F0000000008080800000000E112020201100BA
:10370000000000808088F800000E112020103F206B
:103710000000808080800000001F222222221300EF
:10372000008080F0888888180020203F202000003A
:103730000000808080808000006B949494936000EF
:1037400008F8008080800000203F210000203F20FA
:1037500000809898000000000020203F20200000FA
:10376000000000809898000000C08080807F0000EA
:1037700008F8000080808000203F24022D302000C7
:10378000000808F8000000000020203F2020000072
:103790008080808080808000203F20003F20003F8C
:1037A0008080008080800000203F210000203F209A
:1037B0000000808080800000001F202020201F004B
:1037C000808000808000000080FFA12020110E007A
:1037D0000000008080808000000E112020A0FF806B
:1037E000808080008080800020203F212000010018
:1037F000000080808080800000332424242419006D
:10380000008080E0808000000000001F2020000079
:103810008080000000808000001F202020103F20BA
:10382000808080000080808000010E30080601004A
:1038300080800080008080800F300C030C300F00EF
:1038400000808000808080000020312E0E3120001A
:10385000808080000080808080818E70180601004A
:1038600000808080808080000021302C2221300068
:1038700000000000807C020200000000003F404089
:1038800000000000FF00000000000000FF0000003A
:103890000002027C800000000040403F0000000069
:1038A0000006010102020404000000000000000004
:1038B0000000000000000000000000000000000008
:1038C00000000000000000000000000000000000F8
:1038D000000000000000000000F0F0F00000000018
:1038E0000000000000017F01000000000000000057
:1038F000001C1C1C0000000000008060301C8C605C
:10390000301C0C000000000000000000000000005F
:10391000000000000000000000000000000000E0C7
:103920000000000000E000000086E69F8686868694
:10393000E69F860000011F01010101011F01010036
:10394000000080C06020F820E0C0000000000307F5
:103950000C18FF70E18100000000070F10107F10AD
:103960000F0700008060206080000000E020000061
:103970000F3020309F70DC371030C0000000100E78
:1039800003000718101807000000C02020E0C00046
:103990000000000080E01F38E88703C43C040000FA
:1039A000070F1810100B070D1010080000808C4C2A
:1039B00038000000000000000000000000000000CF
:1039C00000000000000000000000000000000000F7
:1039D00000000000000080E030080400000000004B
:1039E00000FEFF0100000000000000000000030FC7
:1039F0001820400000040830E080000000000000B3
:103A00000000000001FFFE00000000000040201840
:103A10000F03000000000000000000000000C000D4
:103A200000000000004266663C18FF183C666642D3
:103A30000000000000000300000000000000000083
:103A40000000800000000000001010101010FF1097
:103A50001010101000000000000003000000000023
:103A60000000000000000000000000000000000056
:103A7000000000000000000000808C4C38000000B6
:103A80000000000000000000000000000000000036
:103A90000010101010101010101010000000000086
:103AA0000000000000000000000000000000000016
:103AB0000000000000000000000000000000000006
:103AC00000001C1C1C0000000000000000000000A2
:103AD00000000000E0380C000000000080701C03B3
:103AE000000000000060380E01000000000000002F
:103AF000000080C060202060C080000000FEFF0148
:103B00000000000001FFFE000001070E1810101851
:103B10000E0701000000808080C0E000000000006F
:103B20000000000000FFFF00000000000000101077
:103B3000101F1F1010100000008040202020206067
:103B4000C080000000030300804020381F070000F1
:103B5000001C1A1918181818181F00000080C0201F
:103B6000202060C080000000000303001010182F08
:103B7000E780000000070F10101010180F0700005A
:103B8000000000000000C0E0F000000000C0B088AD
:103B9000868180FFFF808000000000000010101F61
:103BA0001F1010000000E060606060606060000056
:103BB00000003F1008080818F0E0000000070B1094
:103BC0001010101C0F030000000080C040202020B7
:103BD000E0C0000000FCFF211008080818F0E00019
:103BE0000001070C18101010080F03000000C0E0BF
:103BF0006060606060E06000000003000000E018AA
:103C00000700000000000000001F1F00000000006F
:103C10000080C0602020202060C080000087EF2C42
:103C20001818303068CF830000070F0810101010EC
:103C3000180F07000000C0C020202020C080000016
:103C4000001F3F604040402010FFFE0000000C1CA1
:103C5000101010080F03000000000000000000001A
:103C60000000000000000000000E0E0E000000002A
:103C700000000000001C1C1C0000000000000000F0
:103C8000000000000000000000000000000C0C001C
:103C90000000000000000000005838000000000094
:103CA00000000000000000804020100000001028EC
:103CB000448201000000000000000000000001023A
:103CC00004081000000000000000000000000000D8
:103CD00000848484848484848484840000000000BC
:103CE00000000000000000000000102040800000E4
:103CF00000000000000000000000018244281000C5
:103D000000001008040201000000000000C0202094
:103D10001010101030E0C0000003030000F0100885
:103D20000C070300000000001C1C1C000000000029
:103D3000000000C0406020202040C00000FCFF01C7
:103D4000F00E03C1FE03807F0001070E0811111061
:103D5000110904020000000080E0E0000000000003
:103D60000000807C4340477FF880000010181F103F
:103D700000000000131F1C1020E0E0202020206025
:103D8000C080000000FFFF10101010182FE7800007
:103D9000101F1F1010101010180F0700000080C017
:103DA000402020202060E00000FCFF010000000017
:103DB000000001000001070E181010100804030095
:103DC00020E0E02020202040C080000000FFFF0015
:103DD0000000000001FFFE00101F1F101010180847
:103DE0000E07010020E0E02020202020206080003D
:103DF00000FFFF101010107C00000000101F1F10AB
:103E0000101010101018060020E0E02020202020C4
:103E10006060800000FFFF101010107C00000100A7
:103E2000101F1F100000000000000000000080C0F4
:103E30006020202040E0000000FCFF010000404026
:103E4000C0C140400001070E181010100F0F0000F5
:103E500020E0E0200000000020E0E02000FFFF1054
:103E60001010101010FFFF00101F1F1000000000A6
:103E7000101F1F100000202020E0E0202020000064
:103E80000000000000FFFF00000000000000101014
:103E9000101F1F101010000000000000202020E064
:103EA000E020202000000000000000FFFF000000D4
:103EB0000060E0808080C07F3F00000020E0E020C4
:103EC000000020A06020200000FFFF30187CE3C02D
:103ED00000000000101F1F10000001131F1C18100D
:103EE00020E0E020000000000000000000FFFF00D4
:103EF0000000000000000000101F1F101010101024
:103F00001018060020E0E0E000000000E0E0E02003
:103F100000FF013FFEC0E01E01FFFF00101F100068
:103F2000031F0300101F1F1020E0E0C0000000006E
:103F30000020E02000FF0003071C78E08000FF0065
:103F4000101F100000000000030F1F00000080C0C1
:103F500060202060C080000000FEFF010000000023
:103F600000FFFE000001070E181010180C070100DA
:103F700020E0E0202020202060C0800000FFFF2003
:103F800020202020301F0F00101F1F1000000000F5
:103F900000000000000080C060202060C0800000A1
:103FA00000FEFF010000000000FFFE000001070E00
:103FB0001111133C7C67210020E0E020202020200C
:103FC00060C0800000FFFF101030F0D0080F070025
:103FD000101F1F10000000030F1C10100080C06095
:103FE000202020204040E00000070F0C181830303F
:103FF00060E08100001F0C0810101010180F07005F
:104000008060202020E0E02020206080010000006F
:1040100000FFFF000000000100000000101F1F1043
:104020000000000020E0E020000000000020E02070
:1040300000FFFF00000000000000FF0000070F1855
:1040400010101010100807002060E0E020000000B1
:1040500020E060200000077FF88000807C030000E3
:1040600000000000071F1C070000000020E0E02007
:1040700000E0E0200020E0200007FFF8E01FFFFC48
:10408000E01F00000000031F0300011F03000000E9
:10409000002060E0A0000020E0602000000000039D
:1040A0008F7CF8C6010000000010181E13000117D5
:1040B0001F1810002060E0E02000000020E06020D9
:1040C000000001073EF8E0180700000000000010A3
:1040D000101F1F101000000000806020202020A072
:1040E000E0E0200000000000C0F03E0F03000000F0
:1040F00000101C1F17101010101806000000000000
:1041000000FC0404040404000000000000FF0000A0
:104110000000000000000000007F404040404000E0
:10412000000010E00000000000000000000000009F
:10413000031C60800000000000000000000000037D
:104140000C70800000000404040404FC0000000063
:1041500000000000000000FF0000000000004040E0
:104160004040407F0000000000000010080C040CDC
:104170000810000000000000000000000000000027
:10418000000000000000000000000000000000002F
:10419000000000000000000000000000000000001F
:1041A000000000008080808080808080808080800F
:1041B00000000004040808000000000000000000E7
:1041C00000000000000000000000000000000000EF
:1041D00000000000000000000000000000000000DF
:1041E000000098D844642424FCF80000000F1F1835
:1041F000101010081F1F10180020E0F00000000031
:10420000000000000000FFFF180804040CF8F00094
:1042100000001F0F18101010180F030000000000FE
:10422000000000000000000000E0F8180404043C56
:104230003800000000030F0C1010101008060000DA
:104240000000000000000020E0F0000000E0F81C8A
:1042500004040408FFFF000000030F1810101008EA
:104260001F0F080000000000000000000000000018
:104270000000E0F8484444444C7870000000030F0C
:104280000C181010100804000000000080C060200E
:1042900020E0C00000040404FFFF04040404000044
:1042A000000010101F1F1010100000000000000080
:1042B0000000000000000000000070F88C04048C76
:1042C000F874040C007076CF8D8D8D89C8787000DD
:1042D0000020E0F000000000000000000000FFFFF0
:1042E00008040404FCF8000000101F1F1000001058
:1042F0001F1F1000000000000060600000000000B0
:104300000000040404FCFC00000000000000101089
:10431000101F1F10101000000000000000000060BF
:104320006000000000000000040404FCFC00000029
:104330000000C0C08080C07F3F0000000020E0F08F
:1043400000000000000000000000FFFF80C0F41C1F
:104350000404000000101F1F1100031F1C10100098
:104360000000202020E0F00000000000000000001D
:1043700000FFFF000000000000001010101F1F10C1
:10438000101000000000000000000000000000000D
:1043900004FCFC0804FCFC0804FCFC00101F1F10BB
:1043A000001F1F10001F1F10000000000000000071
:1043B000000000000004FCFC08080404FCF80000F5
:1043C00000101F1F100000101F1F10000000000031
:1043D000000000000000000000E0F0180C04040CD5
:1043E00018F0E00000030F0C101010100C0F030069
:1043F0000000000000000000000000000004FCFCC1
:10440000080404040CF8F0000080FFFF88901010EE
:104410001C0F03000000000000000000000000006E
:1044200000E0F81C04040408F8FC000000030F1866
:1044300010109088FFFF80000000000000000000C6
:1044400000000000040404FCFC100804040C0C0030
:104450001010101F1F1010100000000000000000BE
:10446000000000000000000000003078CCC484840C
:10447000840C1C0000001E1810101011190F0600EB
:104480000000000000C00000000000000004040460
:10449000FFFF040404000000000000000F1F1010C4
:1044A000100C0000000000000000000000000000F0
:1044B0000004FCFE00000004FCFE000000000F1FD2
:1044C000181010081F0F0800000000000000000076
:1044D0000000000000040C3CFCC40000C43C0C04C0
:1044E00000000000010F1E0E01000000000000008F
:1044F0000000000000000000043CFCC400E47CFC60
:1045000084807C040000071F070000071F070000CD
:104510000000000000000000000000000004041C77
:104520007CE4C0341C0404000010101C1601131F8E
:104530001C18100000000000000000000000000037
:1045400000040C3CFCC400C43C0404000000C08017
:10455000C1370E0100000000000000000000000054
:104560000000000000001C0404C4F47C1C040000D3
:104570000000101C1F17111010180E000000000082
:10458000000000F80C04000000000000001028EFFC
:1045900000000000000000000000003F604000003C
:1045A000000000000000FF0000000000000000000C
:1045B0000000FF0000000000000000000000FF00FD
:1045C000000000000000040CF800000000000000E3
:1045D00000000000EF281000000000000000406014
:1045E0003F0000000000000000180602020408104E
:1045F0002020300800000000000000000000000043
:10460000000000000000000000000000042424A4BA
:104610002F2424E424242FA42424040008080808B8
:104620000B0808FF08080A0908080800000000FE37
:10463000929292FE929292FE000000004444242541
:10464000140C04FF040C1425244444001010909210
:10465000523212FE1231519190101000010100FFF0
:1046600049494949494949FF00010100048444E49A
:10467000BFA4A4ACF4A4AFA4A42404000080601FD1
:104680000A2ACA0A2FCA0A0A2AC800001010D0FF34
:1046900090422A524E40475824528800040300FF9B
:1046A00040415F69494949695F4040008082828298
:1046B000828282E2A2928A868280800000000000CC
:1046C0000040807F0000000000000000848484849B
:1046D0009F84A4C484849F84848484000000000098
:1046E0007F4040404040404040400000000000FE0D
:1046F000929292FE929292FE000000004444242581
:10470000140C04FF040C1425244444001060028C93
:104710004020F8272424E40404FC000004047E0163
:1047200000003F4242424344484770000202E222F6
:1047300022F22E2222E22222E20202000000FF40A8
:10474000407F4949497F4040FF000000101090928F
:10475000523212FE1231519190101000010100FFEF
:1047600049494949494949FF000101000000FE2229
:1047700022FE0042E2524AC64240C00080601F4210
:10478000827F108C4320184780403F000000E020CB
:1047900020A0203F24A42424E40404000000FF40BF
:1047A0005048454245485040FF0000008041211DCF
:1047B000214141FF49494949494340000040C05F08
:1047C0004949497F4949494F60C000000848880865
:1047D000C8380000FC061544847C000020100C033F
:1047E000041800101312125292423E0000FE2222C0
:1047F000FE4042CC00FE929292FE0000807F028238
:10480000FF80403F40BF9089828CB200000000F8DA
:10481000888C8A89888888F800000000000000FFE2
:1048200044444444444444FF000000004044C44421
:104830004444401010FF101010F00000103C131002
:1048400014B840300E014080403F0000201008FCAA
:1048500057545455FE54545454040000000000FBB7
:104860004949494949494949F9010000002024249E
:104870002464A43FA4242424A46000000888884958
:104880004E28190C0B182848880808001010D0FF73
:10489000901000FE020202FE00000000040300FF70
:1048A0000083601F0000003F404078001060028CD1
:1048B0000000FE9292929292FE00000004047E019B
:1048C000407E42427E427E42427E40000000FC2406
:1048D0002424FC252624FC242424040040308F803A
:1048E000844C55252525554C808080000000000013
:1048F000000000000000000000000000000036364C
:104900000000000000000000000000001060028CA9
:1049100000FE929292929292FE00000004047E01A8
:104920004448507F40407F50484440000000FC24F1
:104930002424FC252624FC242424040040308F80D9
:10494000844C55252525554C8080800000000000B2
:1049500000000000000000000000000000003636EB
:1049600000000000000000000000000020202222C3
:1049700022E2222222E22222222020008040201055
:104980000C030000003F4040404078008080402001
:10499000100804C3040810204080800000000000BC
:1049A000000000FF000000000000000000007C404C
:1049B000404040FF40404040FC000000007C404040
:1049C0004040407F4040404040FC00000000FC244C
:1049D00024A4643DA62424242424040040300F1081
:1049E00013121212FF121212121010000000F01017
:1049F000101010FF10101010F000000000000F0445
:104A0000040404FF040404040F000000000000007C
:104A10000000000000303000000000000000000036
:104A200000000000003030000000000000202020C6
:104A300020223CB8602000101010F0101010101050
:104A4000D0F0000000402010180CFF11306CC600A0
:104A500000F03F0000000000FF0700000000000021
:104A600000007F004020100C07010010102060386B
:104A70001F00000000404040C07E4C4040C000008D
:104A800000C0380E0400408080000000000040BCE0
:104A9000878000E03F030006E7E42424242222224A
:104AA000E30F000000402020180D0703060C000053
:104AB0007F3F1010101010103F0000000000000099
:104AC00000E0780E0400000000FE0400000080C03A
:104AD000000000000020180403FFFF000080804059
:104AE00020FF180C06030100000000000000000079
:104AF000007F3F0101000000001F30202020202007
:104B0000303F100000000000000000000000000026
:104B100000000000000000000000000000001C1C5D
:104B20001C00000000000000000000000000000069
:104B30000000000000000000000000000000000075
:104B40000000000000000000000000000000000065
:104B50003130383032333534303200003630323193
:104B600039320000313233343536000033333437D4
:104B700036380000944B0008000000205C00000064
:104B8000341E0008F04B00085C0000207C09000087
:104B9000441E000800000000010203040102030497
:104BA00006070809020406080A000A000A000A00AB
:104BB00009000A000A000A000200010002000300C6
:104BC0000400010001000400FE00000000000000DD
:104BD000000000005C4B00086C4B0008504B0008C4
:104BE000644B00080000000000000000000000000E
:0400000508000105E9
:00000001FF
